{
  "contractName": "Bank",
  "abi": [
    {
      "inputs": [],
      "stateMutability": "payable",
      "type": "constructor",
      "payable": true
    },
    {
      "stateMutability": "payable",
      "type": "receive",
      "payable": true
    },
    {
      "inputs": [],
      "name": "invest",
      "outputs": [],
      "stateMutability": "payable",
      "type": "function",
      "payable": true
    },
    {
      "inputs": [],
      "name": "deposit",
      "outputs": [],
      "stateMutability": "payable",
      "type": "function",
      "payable": true
    },
    {
      "inputs": [
        {
          "internalType": "uint256",
          "name": "amount",
          "type": "uint256"
        },
        {
          "internalType": "string",
          "name": "pswd",
          "type": "string"
        }
      ],
      "name": "withdraw",
      "outputs": [],
      "stateMutability": "payable",
      "type": "function",
      "payable": true
    },
    {
      "inputs": [],
      "name": "getBankFunds",
      "outputs": [
        {
          "internalType": "uint256",
          "name": "",
          "type": "uint256"
        }
      ],
      "stateMutability": "view",
      "type": "function",
      "constant": true
    },
    {
      "inputs": [
        {
          "internalType": "string",
          "name": "pswd",
          "type": "string"
        },
        {
          "internalType": "uint256",
          "name": "mIncome",
          "type": "uint256"
        }
      ],
      "name": "register",
      "outputs": [],
      "stateMutability": "payable",
      "type": "function",
      "payable": true
    },
    {
      "inputs": [],
      "name": "getCredit",
      "outputs": [
        {
          "internalType": "uint256",
          "name": "",
          "type": "uint256"
        }
      ],
      "stateMutability": "view",
      "type": "function",
      "constant": true
    },
    {
      "inputs": [],
      "name": "getUserBalance",
      "outputs": [
        {
          "internalType": "uint256",
          "name": "",
          "type": "uint256"
        }
      ],
      "stateMutability": "view",
      "type": "function",
      "constant": true
    },
    {
      "inputs": [],
      "name": "getLoanStatus",
      "outputs": [
        {
          "internalType": "uint256",
          "name": "",
          "type": "uint256"
        },
        {
          "internalType": "uint256",
          "name": "",
          "type": "uint256"
        }
      ],
      "stateMutability": "view",
      "type": "function",
      "constant": true
    },
    {
      "inputs": [
        {
          "internalType": "uint256",
          "name": "amount",
          "type": "uint256"
        }
      ],
      "name": "getLoan",
      "outputs": [
        {
          "internalType": "uint256",
          "name": "",
          "type": "uint256"
        }
      ],
      "stateMutability": "payable",
      "type": "function",
      "payable": true
    },
    {
      "inputs": [],
      "name": "returnLoan",
      "outputs": [],
      "stateMutability": "payable",
      "type": "function",
      "payable": true
    },
    {
      "inputs": [],
      "name": "getDuration",
      "outputs": [
        {
          "internalType": "uint256",
          "name": "",
          "type": "uint256"
        }
      ],
      "stateMutability": "view",
      "type": "function",
      "constant": true
    }
  ],
  "bytecode": "0x60806040526802b5e3af16b188000034101562000053576040517f08c379a00000000000000000000000000000000000000000000000000000000081526004016200004a90620001c1565b60405180910390fd5b33600160006101000a81548173ffffffffffffffffffffffffffffffffffffffff021916908373ffffffffffffffffffffffffffffffffffffffff16021790555060016000803073ffffffffffffffffffffffffffffffffffffffff1673ffffffffffffffffffffffffffffffffffffffff16815260200190815260200160002060020160006101000a81548160ff021916908315150217905550346000803073ffffffffffffffffffffffffffffffffffffffff1673ffffffffffffffffffffffffffffffffffffffff16815260200190815260200160002060010181905550620001e3565b600082825260208201905092915050565b7f596f752063616e206e6f74206f70656e20612062616e6b2077697468206c657360008201527f73207468616e2035302065746865722100000000000000000000000000000000602082015250565b6000620001a96030836200013a565b9150620001b6826200014b565b604082019050919050565b60006020820190508181036000830152620001dc816200019a565b9050919050565b6122ba80620001f36000396000f3fe6080604052600436106100a05760003560e01c8063ad2e8c9b11610064578063ad2e8c9b14610168578063b7013dc114610193578063d0e30db0146101be578063dc048cf2146101c8578063e8b5e51f146101e4578063ea87152b146101ee576100a7565b80634cb14f12146100ac578063504006ca146100d757806359296e7b1461010757806372dde3fe14610132578063acc1ab131461013c576100a7565b366100a757005b600080fd5b3480156100b857600080fd5b506100c161020a565b6040516100ce9190611777565b60405180910390f35b6100f160048036038101906100ec91906117d2565b6102f4565b6040516100fe9190611777565b60405180910390f35b34801561011357600080fd5b5061011c610703565b6040516101299190611777565b60405180910390f35b61013a6108c0565b005b34801561014857600080fd5b50610151610bde565b60405161015f9291906117ff565b60405180910390f35b34801561017457600080fd5b5061017d610df0565b60405161018a9190611777565b60405180910390f35b34801561019f57600080fd5b506101a8610e50565b6040516101b59190611777565b60405180910390f35b6101c6610f3a565b005b6101e260048036038101906101dd919061196e565b611065565b005b6101ec6112e8565b005b610208600480360381019061020391906119ca565b6113d0565b005b60008060003373ffffffffffffffffffffffffffffffffffffffff1673ffffffffffffffffffffffffffffffffffffffff16815260200190815260200160002060020160009054906101000a900460ff1661029a576040517f08c379a000000000000000000000000000000000000000000000000000000000815260040161029190611acf565b60405180910390fd5b670de0b6b3a76400006000803073ffffffffffffffffffffffffffffffffffffffff1673ffffffffffffffffffffffffffffffffffffffff168152602001908152602001600020600101546102ef9190611b4d565b905090565b60008060003373ffffffffffffffffffffffffffffffffffffffff1673ffffffffffffffffffffffffffffffffffffffff16815260200190815260200160002060020160009054906101000a900460ff16610384576040517f08c379a000000000000000000000000000000000000000000000000000000000815260040161037b90611acf565b60405180910390fd5b600a6000803373ffffffffffffffffffffffffffffffffffffffff1673ffffffffffffffffffffffffffffffffffffffff16815260200190815260200160002060000154426103d39190611b7e565b11610413576040517f08c379a000000000000000000000000000000000000000000000000000000000815260040161040a90611c4a565b60405180910390fd5b60008060003373ffffffffffffffffffffffffffffffffffffffff1673ffffffffffffffffffffffffffffffffffffffff168152602001908152602001600020600301600001541461049a576040517f08c379a000000000000000000000000000000000000000000000000000000000815260040161049190611d02565b60405180910390fd5b816000803073ffffffffffffffffffffffffffffffffffffffff1673ffffffffffffffffffffffffffffffffffffffff168152602001908152602001600020600101541180156104f257506802b5e3af16b188000082105b610531576040517f08c379a000000000000000000000000000000000000000000000000000000000815260040161052890611d6e565b60405180910390fd5b816000803373ffffffffffffffffffffffffffffffffffffffff1673ffffffffffffffffffffffffffffffffffffffff16815260200190815260200160002060010160008282546105829190611d8e565b92505081905550816000803373ffffffffffffffffffffffffffffffffffffffff1673ffffffffffffffffffffffffffffffffffffffff16815260200190815260200160002060030160000181905550426000803373ffffffffffffffffffffffffffffffffffffffff1673ffffffffffffffffffffffffffffffffffffffff1681526020019081526020016000206003016001018190555060026000803373ffffffffffffffffffffffffffffffffffffffff1673ffffffffffffffffffffffffffffffffffffffff16815260200190815260200160002060070181905550816000803073ffffffffffffffffffffffffffffffffffffffff1673ffffffffffffffffffffffffffffffffffffffff16815260200190815260200160002060010160008282546106b39190611b7e565b925050819055506000803373ffffffffffffffffffffffffffffffffffffffff1673ffffffffffffffffffffffffffffffffffffffff168152602001908152602001600020600101549050919050565b60008060003373ffffffffffffffffffffffffffffffffffffffff1673ffffffffffffffffffffffffffffffffffffffff16815260200190815260200160002060020160009054906101000a900460ff16610793576040517f08c379a000000000000000000000000000000000000000000000000000000000815260040161078a90611acf565b60405180910390fd5b60008060003373ffffffffffffffffffffffffffffffffffffffff1673ffffffffffffffffffffffffffffffffffffffff16815260200190815260200160002060000154426107e29190611b7e565b9050600060646000803373ffffffffffffffffffffffffffffffffffffffff1673ffffffffffffffffffffffffffffffffffffffff168152602001908152602001600020600601546108349190611b4d565b90506000670de0b6b3a76400006000803373ffffffffffffffffffffffffffffffffffffffff1673ffffffffffffffffffffffffffffffffffffffff1681526020019081526020016000206001015461088d9190611b4d565b905060008183603c866108a09190611b4d565b6108aa9190611dc2565b6108b49190611dc2565b90508094505050505090565b600063bbf81e006000803373ffffffffffffffffffffffffffffffffffffffff1673ffffffffffffffffffffffffffffffffffffffff16815260200190815260200160002060030160010154426109179190611b7e565b6000803373ffffffffffffffffffffffffffffffffffffffff1673ffffffffffffffffffffffffffffffffffffffff168152602001908152602001600020600701546000803373ffffffffffffffffffffffffffffffffffffffff1673ffffffffffffffffffffffffffffffffffffffff168152602001908152602001600020600301600001546109a89190611dc2565b6109b29190611dc2565b6109bc9190611b4d565b90506000816000803373ffffffffffffffffffffffffffffffffffffffff1673ffffffffffffffffffffffffffffffffffffffff16815260200190815260200160002060030160000154610a109190611d8e565b9050806000803373ffffffffffffffffffffffffffffffffffffffff1673ffffffffffffffffffffffffffffffffffffffff168152602001908152602001600020600101541015610a96576040517f08c379a0000000000000000000000000000000000000000000000000000000008152600401610a8d90611e76565b60405180910390fd5b806000803373ffffffffffffffffffffffffffffffffffffffff1673ffffffffffffffffffffffffffffffffffffffff1681526020019081526020016000206001016000828254610ae79190611b7e565b92505081905550806000803073ffffffffffffffffffffffffffffffffffffffff1673ffffffffffffffffffffffffffffffffffffffff1681526020019081526020016000206001016000828254610b3f9190611d8e565b9250508190555060008060003373ffffffffffffffffffffffffffffffffffffffff1673ffffffffffffffffffffffffffffffffffffffff1681526020019081526020016000206003016000018190555060008060003373ffffffffffffffffffffffffffffffffffffffff1673ffffffffffffffffffffffffffffffffffffffff168152602001908152602001600020600301600101819055505050565b60008060008060003373ffffffffffffffffffffffffffffffffffffffff1673ffffffffffffffffffffffffffffffffffffffff1681526020019081526020016000206003016000015403610c68576040517f08c379a0000000000000000000000000000000000000000000000000000000008152600401610c5f90611ee2565b60405180910390fd5b600060029050600063bbf81e006000803373ffffffffffffffffffffffffffffffffffffffff1673ffffffffffffffffffffffffffffffffffffffff1681526020019081526020016000206003016001015442610cc59190611b7e565b836000803373ffffffffffffffffffffffffffffffffffffffff1673ffffffffffffffffffffffffffffffffffffffff16815260200190815260200160002060030160000154610d159190611dc2565b610d1f9190611dc2565b610d299190611b4d565b90506000816000803373ffffffffffffffffffffffffffffffffffffffff1673ffffffffffffffffffffffffffffffffffffffff16815260200190815260200160002060030160000154610d7d9190611d8e565b905060006301e133806000803373ffffffffffffffffffffffffffffffffffffffff1673ffffffffffffffffffffffffffffffffffffffff1681526020019081526020016000206003016001015442610dd69190611b7e565b610de09190611b4d565b9050818195509550505050509091565b6000603c6000803373ffffffffffffffffffffffffffffffffffffffff1673ffffffffffffffffffffffffffffffffffffffff16815260200190815260200160002060000154610e409190611b4d565b42610e4b9190611b7e565b905090565b60008060003373ffffffffffffffffffffffffffffffffffffffff1673ffffffffffffffffffffffffffffffffffffffff16815260200190815260200160002060020160009054906101000a900460ff16610ee0576040517f08c379a0000000000000000000000000000000000000000000000000000000008152600401610ed790611acf565b60405180910390fd5b670de0b6b3a76400006000803373ffffffffffffffffffffffffffffffffffffffff1673ffffffffffffffffffffffffffffffffffffffff16815260200190815260200160002060010154610f359190611b4d565b905090565b6000803373ffffffffffffffffffffffffffffffffffffffff1673ffffffffffffffffffffffffffffffffffffffff16815260200190815260200160002060020160009054906101000a900460ff16610fc8576040517f08c379a0000000000000000000000000000000000000000000000000000000008152600401610fbf90611acf565b60405180910390fd5b6000341161100b576040517f08c379a000000000000000000000000000000000000000000000000000000000815260040161100290611f74565b60405180910390fd5b346000803373ffffffffffffffffffffffffffffffffffffffff1673ffffffffffffffffffffffffffffffffffffffff168152602001908152602001600020600101600082825461105c9190611d8e565b92505081905550565b6000803373ffffffffffffffffffffffffffffffffffffffff1673ffffffffffffffffffffffffffffffffffffffff16815260200190815260200160002060020160009054906101000a900460ff166110f3576040517f08c379a00000000000000000000000000000000000000000000000000000000081526004016110ea90611acf565b60405180910390fd5b6110fc8161172e565b6000803373ffffffffffffffffffffffffffffffffffffffff1673ffffffffffffffffffffffffffffffffffffffff168152602001908152602001600020600501541461117e576040517f08c379a000000000000000000000000000000000000000000000000000000000815260040161117590611fe0565b60405180910390fd5b600082116111c1576040517f08c379a00000000000000000000000000000000000000000000000000000000081526004016111b890612072565b60405180910390fd5b816000803373ffffffffffffffffffffffffffffffffffffffff1673ffffffffffffffffffffffffffffffffffffffff168152602001908152602001600020600101541015611245576040517f08c379a000000000000000000000000000000000000000000000000000000000815260040161123c906120de565b60405180910390fd5b3373ffffffffffffffffffffffffffffffffffffffff166108fc839081150290604051600060405180830381858888f1935050505015801561128b573d6000803e3d6000fd5b50816000803373ffffffffffffffffffffffffffffffffffffffff1673ffffffffffffffffffffffffffffffffffffffff16815260200190815260200160002060010160008282546112dd9190611b7e565b925050819055505050565b6000803373ffffffffffffffffffffffffffffffffffffffff1673ffffffffffffffffffffffffffffffffffffffff16815260200190815260200160002060020160009054906101000a900460ff16611376576040517f08c379a000000000000000000000000000000000000000000000000000000000815260040161136d90611acf565b60405180910390fd5b346000803073ffffffffffffffffffffffffffffffffffffffff1673ffffffffffffffffffffffffffffffffffffffff16815260200190815260200160002060010160008282546113c79190611d8e565b92505081905550565b6000803373ffffffffffffffffffffffffffffffffffffffff1673ffffffffffffffffffffffffffffffffffffffff16815260200190815260200160002060020160009054906101000a900460ff161561145f576040517f08c379a00000000000000000000000000000000000000000000000000000000081526004016114569061214a565b60405180910390fd5b670de0b6b3a76400003410156114aa576040517f08c379a00000000000000000000000000000000000000000000000000000000081526004016114a1906121dc565b60405180910390fd5b6000670de0b6b3a7640000346114c09190611b7e565b905060016000803073ffffffffffffffffffffffffffffffffffffffff1673ffffffffffffffffffffffffffffffffffffffff16815260200190815260200160002060010160008282546115149190611d8e565b9250508190555060016000803373ffffffffffffffffffffffffffffffffffffffff1673ffffffffffffffffffffffffffffffffffffffff16815260200190815260200160002060020160006101000a81548160ff021916908315150217905550806000803373ffffffffffffffffffffffffffffffffffffffff1673ffffffffffffffffffffffffffffffffffffffff16815260200190815260200160002060010181905550426000803373ffffffffffffffffffffffffffffffffffffffff1673ffffffffffffffffffffffffffffffffffffffff1681526020019081526020016000206000018190555060008060003373ffffffffffffffffffffffffffffffffffffffff1673ffffffffffffffffffffffffffffffffffffffff1681526020019081526020016000206003016000018190555060008060003373ffffffffffffffffffffffffffffffffffffffff1673ffffffffffffffffffffffffffffffffffffffff1681526020019081526020016000206003016001018190555061169e8361172e565b6000803373ffffffffffffffffffffffffffffffffffffffff1673ffffffffffffffffffffffffffffffffffffffff16815260200190815260200160002060050181905550816000803373ffffffffffffffffffffffffffffffffffffffff1673ffffffffffffffffffffffffffffffffffffffff16815260200190815260200160002060060181905550505050565b600081604051602001611741919061226d565b604051602081830303815290604052805190602001209050919050565b6000819050919050565b6117718161175e565b82525050565b600060208201905061178c6000830184611768565b92915050565b6000604051905090565b600080fd5b600080fd5b6117af8161175e565b81146117ba57600080fd5b50565b6000813590506117cc816117a6565b92915050565b6000602082840312156117e8576117e761179c565b5b60006117f6848285016117bd565b91505092915050565b60006040820190506118146000830185611768565b6118216020830184611768565b9392505050565b600080fd5b600080fd5b6000601f19601f8301169050919050565b7f4e487b7100000000000000000000000000000000000000000000000000000000600052604160045260246000fd5b61187b82611832565b810181811067ffffffffffffffff8211171561189a57611899611843565b5b80604052505050565b60006118ad611792565b90506118b98282611872565b919050565b600067ffffffffffffffff8211156118d9576118d8611843565b5b6118e282611832565b9050602081019050919050565b82818337600083830152505050565b600061191161190c846118be565b6118a3565b90508281526020810184848401111561192d5761192c61182d565b5b6119388482856118ef565b509392505050565b600082601f83011261195557611954611828565b5b81356119658482602086016118fe565b91505092915050565b600080604083850312156119855761198461179c565b5b6000611993858286016117bd565b925050602083013567ffffffffffffffff8111156119b4576119b36117a1565b5b6119c085828601611940565b9150509250929050565b600080604083850312156119e1576119e061179c565b5b600083013567ffffffffffffffff8111156119ff576119fe6117a1565b5b611a0b85828601611940565b9250506020611a1c858286016117bd565b9150509250929050565b600082825260208201905092915050565b7f596f75206d75737420626520726567697374657265642077697468207468652060008201527f62616e6b20746f2062652061626c6520746f20706572666f726d20746869732060208201527f66756e6374696f6e210000000000000000000000000000000000000000000000604082015250565b6000611ab9604983611a26565b9150611ac482611a37565b606082019050919050565b60006020820190508181036000830152611ae881611aac565b9050919050565b7f4e487b7100000000000000000000000000000000000000000000000000000000600052601260045260246000fd5b7f4e487b7100000000000000000000000000000000000000000000000000000000600052601160045260246000fd5b6000611b588261175e565b9150611b638361175e565b925082611b7357611b72611aef565b5b828204905092915050565b6000611b898261175e565b9150611b948361175e565b9250828203905081811115611bac57611bab611b1e565b5b92915050565b7f596f75206e65656420746f20626520726567697374657265642077697468207460008201527f68652062616e6b20666f722061746c656173742031206d696e75746520746f2060208201527f62652061626c6520746f206170706c7920666f722061206c6f616e2100000000604082015250565b6000611c34605c83611a26565b9150611c3f82611bb2565b606082019050919050565b60006020820190508181036000830152611c6381611c27565b9050919050565b7f596f75206e65656420746f20726570617920796f75722070726576696f75732060008201527f6c6f616e20746f2062652061626c6520746f206170706c7920666f7220616e6f60208201527f7468657221000000000000000000000000000000000000000000000000000000604082015250565b6000611cec604583611a26565b9150611cf782611c6a565b606082019050919050565b60006020820190508181036000830152611d1b81611cdf565b9050919050565b7f546f6f206d75636820746f2061736b20666f7221000000000000000000000000600082015250565b6000611d58601483611a26565b9150611d6382611d22565b602082019050919050565b60006020820190508181036000830152611d8781611d4b565b9050919050565b6000611d998261175e565b9150611da48361175e565b9250828201905080821115611dbc57611dbb611b1e565b5b92915050565b6000611dcd8261175e565b9150611dd88361175e565b9250828202611de68161175e565b91508282048414831517611dfd57611dfc611b1e565b5b5092915050565b7f596f7520646f206e6f74206861766520656e6f7567682066756e647320746f2060008201527f726570617920796f7572206c6f616e2100000000000000000000000000000000602082015250565b6000611e60603083611a26565b9150611e6b82611e04565b604082019050919050565b60006020820190508181036000830152611e8f81611e53565b9050919050565b7f596f7520646f6e2774206861766520616e20616374697665206c6f616e210000600082015250565b6000611ecc601e83611a26565b9150611ed782611e96565b602082019050919050565b60006020820190508181036000830152611efb81611ebf565b9050919050565b7f4465706f73697420616d6f756e74206d7573742062652067726561746572207460008201527f68616e2030000000000000000000000000000000000000000000000000000000602082015250565b6000611f5e602583611a26565b9150611f6982611f02565b604082019050919050565b60006020820190508181036000830152611f8d81611f51565b9050919050565b7f50617373776f72647320646f206e6f74206d6174636821210000000000000000600082015250565b6000611fca601883611a26565b9150611fd582611f94565b602082019050919050565b60006020820190508181036000830152611ff981611fbd565b9050919050565b7f5769746864726177616c20616d6f756e74206d7573742062652067726561746560008201527f72207468616e2030000000000000000000000000000000000000000000000000602082015250565b600061205c602883611a26565b915061206782612000565b604082019050919050565b6000602082019050818103600083015261208b8161204f565b9050919050565b7f496e73756666696369656e742066756e64730000000000000000000000000000600082015250565b60006120c8601283611a26565b91506120d382612092565b602082019050919050565b600060208201905081810360008301526120f7816120bb565b9050919050565b7f596f7527726520616c7265616479207265676973746572656400000000000000600082015250565b6000612134601983611a26565b915061213f826120fe565b602082019050919050565b6000602082019050818103600083015261216381612127565b9050919050565b7f596f75206e6565642061746c65617374203120657468657220746f206f70656e60008201527f20757020616e206163636f756e74210000000000000000000000000000000000602082015250565b60006121c6602f83611a26565b91506121d18261216a565b604082019050919050565b600060208201905081810360008301526121f5816121b9565b9050919050565b600081519050919050565b600081905092915050565b60005b83811015612230578082015181840152602081019050612215565b60008484015250505050565b6000612247826121fc565b6122518185612207565b9350612261818560208601612212565b80840191505092915050565b6000612279828461223c565b91508190509291505056fea26469706673582212201dca2a7e8a71a2577307d8080e29045671b9639cda2e66ed3175bbb6ed78284a64736f6c63430008120033",
  "immutableReferences": {},
  "source": "// Bank Contract\n\npragma solidity ^0.8.18;\n\nstruct loan_status {\n    uint256 amount;\n    uint256 time;\n}\n\nstruct user {\n    uint256 joining_date;\n    uint256 balance;\n    bool isRegistered;\n    loan_status status;\n    bytes32 password;\n    uint256 monthlyIncome;\n    uint256 interestRate;\n}\n\ncontract Bank {\n    mapping(address => user) private users;\n    address owner;\n\n    constructor() payable {\n        require(msg.value >= 50 ether, \"You can not open a bank with less than 50 ether!\");\n\n        owner = msg.sender;\n        users[address(this)].isRegistered = true;\n        users[address(this)].balance = msg.value;\n    }\n\n    receive() payable external {}\n\n    //modifiers \n    modifier isOwner {\n        require(msg.sender == owner, \"You must be the owner to be able to access this function!\");\n        _;\n    }\n    modifier isAccountOwner {\n        require(users[msg.sender].isRegistered, \"You must be registered with the bank to be able to perform this function!\");\n        _;\n    }\n    modifier canGetLoan {\n        require(block.timestamp-users[msg.sender].joining_date > 10 seconds, \"You need to be registered with the bank for atleast 1 minute to be able to apply for a loan!\");\n        require(users[msg.sender].status.amount == 0, \"You need to repay your previous loan to be able to apply for another!\");\n        _;\n    }\n\n\n    function calculateHash(string memory value) internal pure returns (bytes32) {\n        return keccak256(abi.encodePacked(value));\n    }\n\n    //Regular Bank functions \n    function invest() public payable isAccountOwner {\n        users[address(this)].balance += msg.value;\n    }\n    function deposit() public payable isAccountOwner {\n        require(msg.value > 0, \"Deposit amount must be greater than 0\");\n        users[msg.sender].balance += msg.value;\n    }\n    function withdraw(uint256 amount,string memory pswd) public payable isAccountOwner{\n        require(users[msg.sender].password==calculateHash(pswd),\"Passwords do not match!!\");\n        require(amount > 0, \"Withdrawal amount must be greater than 0\");\n        require(users[msg.sender].balance >= amount, \"Insufficient funds\");\n        payable(msg.sender).transfer(amount);\n        users[msg.sender].balance -= amount;\n    }\n    function getBankFunds() public view isAccountOwner returns(uint256){\n        return users[address(this)].balance / 1 ether;\n    }\n\n    //User functions\n    function register(string memory pswd, uint256 mIncome) public payable{\n        require(!users[msg.sender].isRegistered, \"You're already registered\");\n        require(msg.value >= 1 ether, \"You need atleast 1 ether to open up an account!\");\n\n        uint256 rest = msg.value - 1 ether;\n        users[address(this)].balance += 1;\n        users[msg.sender].isRegistered = true;\n        users[msg.sender].balance = rest;\n        users[msg.sender].joining_date = block.timestamp;\n        users[msg.sender].status.amount = 0;\n        users[msg.sender].status.time = 0;\n        users[msg.sender].password=calculateHash(pswd);\n        users[msg.sender].monthlyIncome=mIncome;\n\n    }\n    function getCredit() public view isAccountOwner returns (uint256) { \n    \n        uint256 duration = block.timestamp - users[msg.sender].joining_date;\n        uint256 incomeFactor = users[msg.sender].monthlyIncome / 100; // Consider monthly income as a factor\n        uint256 balanceFactor = users[msg.sender].balance / 1 ether; // Consider bank balance as a factor\n        //credit calculation custom to our bank\n        uint256 credit = (duration / 1 minutes) * incomeFactor * balanceFactor;\n        return credit;\n    }\n    function getUserBalance() public view isAccountOwner returns (uint256) {\n        return users[msg.sender].balance / 1 ether;\n    }\n    function getLoanStatus() public view returns (\n        uint256, // amount to be paid\n        uint256  // time elapsed\n    ){\n        require(users[msg.sender].status.amount != 0, \"You don't have an active loan!\");\n\n        uint256 interestRate = 2; // Assuming a 2% interest rate per year\n\n        // Calculate the interest accrued\n        uint256 interestAccrued = (users[msg.sender].status.amount * interestRate * (block.timestamp - users[msg.sender].status.time)) / (365 days * 100);\n\n        // Calculate the total amount to be paid\n        uint256 totalAmountToBePaid = users[msg.sender].status.amount + interestAccrued;\n\n        // Calculate the time elapsed in years\n        uint256 timeElapsedInYears = (block.timestamp - users[msg.sender].status.time) / 365 days;\n\n        return (totalAmountToBePaid, timeElapsedInYears);\n    }\n    function getLoan(uint256 amount) payable public isAccountOwner canGetLoan returns (uint256){\n        require(users[address(this)].balance > amount && amount < 50 ether, \"Too much to ask for!\");\n\n       // payable(msg.sender).transfer(amount);\n        users[msg.sender].balance+=amount;\n        users[msg.sender].status.amount = amount;\n        users[msg.sender].status.time = block.timestamp;\n        users[msg.sender].interestRate=2;\n        users[address(this)].balance -= amount;\n\n        return users[msg.sender].balance;\n    }\n    function returnLoan() payable public {\n        //uint256 interestRate = 2; // Assuming a 2% interest rate per year\n\n        // Calculate the interest accrued\n        uint256 interestAccrued = (users[msg.sender].status.amount * users[msg.sender].interestRate * (block.timestamp - users[msg.sender].status.time)) / (365 days * 100);\n\n        // Calculate the total amount to be paid\n        uint256 totalAmountToBePaid = users[msg.sender].status.amount + interestAccrued;\n\n        require(users[msg.sender].balance >= totalAmountToBePaid, \"You do not have enough funds to repay your loan!\");\n\n        users[msg.sender].balance -= totalAmountToBePaid;\n        users[address(this)].balance += totalAmountToBePaid;\n\n        users[msg.sender].status.amount = 0;\n        users[msg.sender].status.time = 0;\n    }\n    function getDuration() view public returns (uint256){\n        return block.timestamp - users[msg.sender].joining_date / 1 minutes;\n    }\n}",
  "sourcePath": "C:\\Users\\Dilpahan\\Desktop\\ISP_Project\\bankofsrilanka\\truffle\\contracts\\Bank.sol",
  "compiler": {
    "name": "solc",
    "version": "0.8.18+commit.87f61d96.Emscripten.clang"
  },
  "schemaVersion": "3.4.16",
  "updatedAt": "2024-05-17T12:58:37.618Z",
  "networkType": "ethereum",
  "devdoc": {
    "kind": "dev",
    "methods": {},
    "version": 1
  },
  "userdoc": {
    "kind": "user",
    "methods": {},
    "version": 1
  }
}